:06087000256900202000B4
:0C083D000217000502100017021D003811
:10081900E4FDFCC3ED9FEC9E50070DBD00010C806B
:01082900F2DC
:01082A0022AB
:1006E900E4FDFCC3ED9FEC9E5015E4FBFA0BBB0047
:0F06F900010AEB647D4A70F50DBD00010C80E431
:0107080022CE
:1006C700EF540FFB7A00EEC4F854F0C868FEEFC48D
:1006D700540F48FF7C007D0A120378EF2BFFEA3E98
:0106E700FE14
:0106E80022EF
:04061700AB07AA067D
:10061B007C007D0A12038A8D828C83AE02AF037C31
:10062B00007D0A12038AEFC4F8540FC868FFEEC4AA
:0C063B0054F048FEEF2582FFEE3583FEF0
:010647002290
:030806001207A432
:10080900D2827F037E00120819C2827F3202081940
:1007A400EF139284EFC313139285EF1313543F1383
:0C07B4009286EF131313541F1392872238
:10082B00AB07EBC4540FFF120806AF031207A40269
:02083B000809AA
:0C084A007F0112082B7F0A7E00020819B3
:1005D200E4FF1207A47F147E001206E9C280C281E2
:1005E2007F031208067F057E001206E91208097FC2
:1005F200647E001208191208097F021207A4120869
:10060200097F2812082B7F0C12082B7F0612082B59
:050612007F0102082B2E
:10070900ED7006EF2480FA8004EF24C0FA7FE87EBA
:1007190003120819AF0212082B7F327E0002081952
:08086800D28012082BC280228D
:0B064800E4FD1207097B007A00791224
:100653008B228A238924AB22AA23A92412035FFFB6
:10066300601012086874012524F524E43523F5236A
:0306730080E422FE
:0907F100EF1F70011E144E600B95
:0B07FA00751F50151FE51F60EE80F812
:0108050022D0
:09085600D2A0D2A1C2A1C2A022CD
:09085F00D2A0C2A1D2A1D2A022B4
:1007DA00E4FEEF3392A1D2A0C2A0EF25E0FF0EBE45
:0607EA0008F0D2A0C2A03D
:0107F00022E6
:1007C000E4FFFED2A0A2A19200EF25E0FFA200E488
:0907D000334207C2A00EBE08EA84
:0107D90022FD
:02078700AC07BD
:10078900AF05AB077A001208567FD01207DAAF041B
:0B0799001207DAAF031207DA02085F54
:02072900AD071A
:10072B001208567FD01207DAAF051207DA120856F5
:0D073B007FD11207DA1207C07E0012085F9E
:01074800228E
:10067600AD0DE4FF120787AD187F01120787AD1194
:100686007F02120787AD0F7F04120787AD097F052A
:0A069600120787AD0B7F06020787ED
:100749007F021207297510008F117F011207297581
:0F07590017008F18E4FF120729750C008F0D226F
:100768007F04120729750E008F0F7F051207297560
:0F07780008008F097F06120729750A008F0B22D0
:100454007F107E001206178E178F187F177E0012EA
:1004640006178E108F111206761205D27F017E00B8
:100474001206E91207497F0A7E001206E9AF11AE9F
:10048400101206C78E198F1A7525FF752608752751
:1004940070851928851A297B007A00791212005F69
:1004A4007F02120648E51A451970097BFF7A08791C
:1004B40073120653AF18AE171206C78E1B8F1C7526
:1004C40025FF752608752770851B28851C297B0048
:1004D4007A00791212005F7F08120648E51C451B5A
:1004E40070097BFF7A087973120653D294AF0DAE6C
:1004F4000C1206C7EF651E7003EE651D700302043F
:10050400777E00E50D547FFF1206C78E1D8F1E7582
:1005140025FF752608752770851D28851E297B00F3
:100524007A00791212005FE4FD7F0E12064AE51E7E
:10053400451D70097BFF7A087973120653C2940231
:0205440004773A
:03000000020546B0
:0C054600787FE4F6D8FD75813502058D44
:10035F00BB010689828A83E0225002E722BBFE029C
:09036F00E32289828A83E49322CF
:10037800EF8DF0A4A8F0CF8CF0A428CE8DF0A42E99
:02038800FE2253
:10038A00BC000BBE0029EF8DF084FFADF022E4CC57
:10039A00F875F008EF2FFFEE33FEEC33FCEE9DEC20
:1003AA00984005FCEE9DFE0FD5F0E9E4CEFD22ED66
:1003BA00F8F5F0EE8420D21CFEADF075F008EF2FB0
:1003CA00FFED33FD4007985006D5F0F222C398FDA1
:0503DA000FD5F0EA223E
:10000300E5312425F8E605312278223007027825E8
:10001300E475F00112041E02035F2000EB7F2ED271
:10002300008018EF540F2490D43440D4FF30040BD5
:10003300EF24BFB41A0050032461FFE532600215B8
:10004300320535E5357002053430070D7822E47545
:10005300F00112041EEF02040C0206A07403D2077F
:100063008003E4C207F5318B228A238924E4F53225
:10007300F534F535E53260077F2012003E80F575D3
:1000830033FFC201C200C202C203C205C206C208D4
:1000930012000CFF700D3007057F0012004FAF35C3
:1000A300AE3422B4255FC2D5C20412000CFF24D0A3
:1000B300B40A00501A75F00A783230D50508B6FF35
:1000C3000106C6A426F620D5047002D20380D924E3
:1000D300CFB41A00EF5004C2E5D20402024FD2019A
:1000E30080C6D20080C0D20280BCD2D580BAD205ED
:1000F30080B47F2012003E2002077401B532004015
:10010300F1120003FF12003E020077D208D20680EC
:1001130095120003FB120003FA120003F94A4B7015
:100123000679207A037BFF20022EE532602A7E00C7
:100133008E827583001203DF60060EEE653370F066
:10014300C2D5EBC0E0EAC0E0E9C0E0EE120296D00F
:10015300E0F9D0E0FAD0E0FB12035FFF60AAEBC046
:10016300E0EAC0E0E9C0E012003ED0E02401F9D0AB
:10017300E03400FAD0E0FBE5330460DCD533D9800A
:10018300877BFF7A027992D202809C791080027970
:1001930008C206C2088008D2D5790A8004790AC247
:1001A300D5E533047002F533E4FAFDFEFF120003D4
:1001B300FC7B08200113120003FD7B1030000A12A0
:1001C3000003FE120003FF7B20EC3382D592D5504F
:1001D30013C3E43000069FFFE49EFEE42001039D69
:1001E300FDE49CFCE4CBF8C201EC700CCFCECDCC8B
:1001F300E824F8F870F38017C3EF33FFEE33FEED16
:1002030033FDEC33FCEB33FB994002FB0FD8E9EBF6
:10021300300105F8D0E0C448B201C0E00AEC4D4E0D
:100223004F78207B0070C2EAB5330040BCC0E012B7
:100233000298D0F0D0E0200104C4C0E0C4B201C0F1
:10024300F0120027D0F0D5F0EB02007712042E0154
:100253001453018E5800E54C00E14201924F019A7C
:0F02630044019A4900FA4301A0550184460184E1
:100272004501844703405000E92D00ED2E01102B6B
:1002820000F123010E2003292A00A94800000108D9
:100292003F3F3F00790AA2D5200314300509B91067
:1002A200020404B9080104A2D52006025001042068
:1002B20002689202B532005034C0E07F2030031948
:1002C2007F30A20272067205500F1202EFC202C202
:1002D20006C205C2087F30800F300503E9C0E01274
:1002E200003E300503D0E0F9D0E0B532CC3005173E
:1002F2007F30B9100C12003E7F583004077F78809F
:1003020003B9080312003E3002057F2D02003E7F32
:10031200202008F87F2B2006F322920280CF286E3D
:10032200756C6C2900D2011200033001F8C2017809
:100332003230D50108F60200A92D50434958120067
:10034200032403B405004001E490033B9312002F01
:0D035200743A12002FD20375320402018E9E
:10055200020454E493A3F8E493A34003F68001F267
:1005620008DFF48029E493A3F85407240CC8C333AA
:10057200C4540F4420C8834004F456800146F6DF79
:10058200E4800B010204081020408090083DE47EC4
:10059200019360BCA3FF543F30E509541FFEE4936E
:1005A200A360010ECF54C025E060A840B8E493A335
:1005B200FAE493A3F8E493A3C8C582C8CAC583CA60
:1005C200F0A3C8C582C8CAC583CADFE9DEE780BE18
:0108490000AE
:1003DF00BB010CE58229F582E5833AF583E02250D3
:1003EF0006E92582F8E622BBFE06E92582F8E2221D
:0D03FF00E58229F582E5833AF583E4932237
:10040C00BB010689828A83F0225002F722BBFE01CF
:02041C00F322C9
:10041E00FAE6FB0808E6F925F0F618E6CA3AF622DF
:10042E00D083D082F8E4937012740193700DA3A35D
:10043E0093F8740193F5828883E473740293686071
:06044E00EFA3A3A380DF71
:1006A000EFB40A07740D1206AB740A309811A899BA
:1006B000B8130CC2983098FDA899C298B811F630BA
:0706C00099FDC299F5992292
:00000001FF
