:0C05FC000A0A40F9A4B0999282F880909D
:10050E00EF540FFB7A00EEC4F854F0C868FEEFC447
:10051E00540F48FF7C007D0A120423EF2BFFEA3EA6
:01052E00FECE
:01052F0022A9
:04048A00AB07AA060C
:10048E007C007D0A1204358D828C83AE02AF037C14
:10049E00007D0A120435EFC4F8540FC868FFEEC48D
:0C04AE0054F048FEEF2582FFEE3583FE7F
:0104BA00221F
:1004E500E51A75F00A84740A25F0F8E6F580C2A3CA
:0404F5007F147E00F2
:0904F900EF1F70011E144E600B90
:0B050200751C50151CE51C60EE80F815
:01050D0022CB
:10053000E4FDFCC3ED9FEC9E5015E4FBFA0BBB0001
:0F054000010AEB647D4A70F50DBD00010C80E4EB
:01054F002289
:1005EA00E4FDFCC3ED9FEC9E50070DBD00010C809D
:0105FA00F20E
:0105FB0022DD
:09061500D2A0D2A1C2A1C2A02210
:09061E00D2A0C2A1D2A1D2A022F7
:1005A700E4FEEF3392A1D2A0C2A0EF25E0FF0EBE7A
:0605B70008F0D2A0C2A072
:0105BD00221B
:10058D00E4FFFED2A0A2A19200EF25E0FFA200E4BD
:09059D00334207C2A00EBE08EAB9
:0105A6002232
:02057000AC07D6
:10057200AF05AB077A001206157FD01205A7AF04AC
:0B0582001205A7AF031205A702061E1A
:02055000AD07F5
:100552001206157FD01205A7AF051205A7120615C0
:0D0562007FD11205A712058D7E0012061E26
:01056F002269
:1004BB00AD14E4FF120570AD177F01120570AD1678
:1004CB007F02120570AD157F04120570AD087F0514
:0A04DB00120570AD097F06020570DE
:1005BE007F021205508F167F011205508F17E4FF30
:0605CE001205508F1422FB
:1005D4007F041205508F157F051205508F087F0682
:0605E4001205508F0922F0
:1001D40012060920900302026A209333051AE51AD5
:1001E400D3943B4003E4F51A209324E51AD3943BBB
:1001F4004003E4F51A1204E5D2A3E51A75F00A8463
:10020400240AF8E6F580C2A21204F5D2A280D9200D
:10021400922DE51A7003751A3B151A209221E51ADE
:100224007003751A3B1204E5D2A3E51A75F00A842B
:10023400240AF8E6F580C2A21204F5D2A280DC12E8
:1002440004E5D2A3E51A75F00A84240AF8E6F580D9
:10025400C2A21204F5D2A23091030201D73091FD5B
:100264001200F70201D7AF1A7E0012048A8F17AD6D
:0D027400177F011205707F147E000204F94F
:1000F7001206092090030201BD2093430518E51855
:10010700D394174003E4F51A209334E518D39417D2
:100117004003E4F518E51875F00A84740A25F0F829
:10012700E6F580C2A61204F5D2A6E51875F00A8492
:10013700240AF8E6F580C2A71204F5D2A780C920E1
:10014700923DE51870037518171518209231E518B8
:100157007003751817E51875F00A84740A25F0F806
:10016700E6F580C2A61204F5D2A6E51875F00A8452
:10017700240AF8E6F580C2A71204F5D2A780CCE5D9
:100187001875F00A84740A25F0F8E6F580C2A612FD
:1001970004F5D2A6E51875F00A84240AF8E6F58076
:1001A700C2A71204F5D2A73091030200FA3091FDDD
:1001B7001201D40200FAAF187E0012048A8F16AD1E
:0D01C700167F021205707F147E000204F9FD
:100003001205BEAF177E0012050E8F1AAF167E00C3
:1000130012050E8F18D2B0AF147E0012050EEF65D5
:100023001B7001EE6002C2B0AF147E0012050E8F8A
:100033001BE51A75F00A84740A25F0F8E6F580C208
:10004300A37F047E001204F9D2A3E51A75F00A8493
:10005300240AF8E6F580C2A27F047E001204F9D2D6
:10006300A2E51875F00A84740A25F0F8E6F580C253
:10007300A67F047E001204F9D2A6E51875F00A845F
:10008300240AF8E6F580C2A77F047E001204F9D2A1
:10009300A7E51A75F00A84740A25F0F8E6F580C21C
:1000A300A37F047E001204F9D2A3E51A75F00A8433
:1000B300240AF8E6F580C2A27F047E001204F9D276
:1000C300A2E51875F00A84740A25F0F8E6F580C2F3
:1000D300A67F047E001204F9D2A6E51875F00A84FF
:1000E300240AF8E6F580C2A77F047E001204F9D241
:0400F300A7020281DD
:10028100E51AB410047F0180027F00E518B415045B
:100291007E0180027E00EE5FFFE51B70047E01801F
:1002A100027E00EE5F6002C2B1E51AB414047F0160
:1002B10080027F00E518B415047E0180027E00EE05
:1002C1005FFFE51B70047E0180027E00EE5F60022D
:1002D100D2B1E51AB414047F0180027F00E518B49D
:1002E10001047E0180027E00EE5FFFE51B70047E4B
:1002F1000180027E00EE5F6002C2B7E51AB4170406
:100301007F0180027F00E518B401047E0180027E36
:1003110000EE5FFFE51B70047E0180027E00EE5F50
:050321006002D2B722CA
:03062700D2B72225
:03062A00C2B72232
:0C060900C2B77F2C7E01120530D2B72250
:1003B200C2A7C2A67F2C7E01120530C2A21205304E
:1003C200C2A312053012060975A0FF7F0212055062
:1003D2008F167F011205508F171204BB1205BE1231
:1003E20000031202812091092093063091FD12012F
:1003F200D420930D3093FD75A0FF7580FFD2B0809D
:10040200AF20920D3092FD75A0FF7580FFD29180D2
:100412009F2090C83090FD75A0FF7580FFD291801B
:010422008F4A
:03000000020326D2
:0C032600787FE4F6D8FD75812002036D9D
:10042300EF8DF0A4A8F0CF8CF0A428CE8DF0A42EED
:02043300FE22A7
:10043500BC000BBE0029EF8DF084FFADF022E4CCAB
:10044500F875F008EF2FFFEE33FEEC33FCEE9DEC74
:10045500984005FCEE9DFE0FD5F0E9E4CEFD22EDBA
:10046500F8F5F0EE8420D21CFEADF075F008EF2F04
:10047500FFED33FD4007985006D5F0F222C398FDF5
:050485000FD5F0EA2292
:100332000203B2E493A3F8E493A34003F68001F22C
:1003420008DFF48029E493A3F85407240CC8C333CC
:10035200C4540F4420C8834004F456800146F6DF9B
:10036200E4800B01020408102040809005FCE47E2A
:10037200019360BCA3FF543F30E509541FFEE49390
:10038200A360010ECF54C025E060A840B8E493A357
:10039200FAE493A3F8E493A3C8C582C8CAC583CA82
:1003A200F0A3C8C582C8CAC583CADFE9DEE780BE3A
:0106080000F1
:00000001FF
